:03000000020006F5
:03005F0002000399
:03000300020750A1
:20006200AE82AF838E048F051EBEFF011FEC4D600F7CE87D031CBCFF011DEC4D70F780E476
:2000820022AE82AF83C2C2C2C0C2C1D2C07C007D00C2C074805EFA7B00BA8007BB0004D2AB
:2000A200C18002C2C1EFCE25E0CE33FFD2C00CBC00010DC3EC9408ED6480948040D3D2C277
:2000C20022AF82C2C2C2C0D2C1D2C07D007E00C2C074805FFCBC8004D2C18002C2C1EF2FDE
:2000E200FFD2C00DBD00010EC3ED9408EE6480948040DCD2C2227E008E831200838508825D
:200102000200C3C2CC900096120062D2CC9000960200627508017582FE1200F87508407519
:2001220082051200F87508557582061200F87508717582101200F875088075820E1200F848
:200142007508557582191200F87508887582181200F875081075821A1200F8750877758200
:200162001C1200F87508217582231200F87508407582211200F87508B77582221200F875EA
:2001820008057582251200F87508FC7582261200F87508FF7582701200F87508047582FE27
:2001A2001200F875081075825D1200F87508FF75825A1200F87508047582FE1200F8750874
:2001C200CC7582001200F87508007582011200F87508027582021200F875080075820312C6
:2001E20000F87508A87582041200F87508017582051200F875088E7582061200F87508FCCC
:200202007582071200F87508027582081200F87508047582FE1200F87508CC758209120071
:20022200F875080075820A1200F875080475820B1200F875080075820C1200F875088075B3
:20024200820D1200F875080275820E1200F875080175820F1200F87508007582101200F859
:200262007508027582111200F87508047582FE1200F875088C7582121200F87508007582DB
:20028200131200F87508027582141200F87508017582151200F87508087582161200F87506
:2002A20008007582171200F875088E7582181200F87508367582191200F875080275821A9B
:2002C2001200F87508047582FE1200F87508CC75821B1200F875080075821C1200F8750816
:2002E2000275821D1200F875080075821E1200F875080875821F1200F875080075822012F5
:2003020000F875088E7582211200F87508007582221200F87508027582231200F8750804F2
:200322007582FE1200F87508CC7582241200F87508007582251200F87508027582261200FD
:20034200F87508007582271200F87508087582281200F87508017582291200F875088E7528
:20036200822A1200F875084275822B1200F875080275822D1200F87508047582FE1200F8AD
:2003820075088C75822F1200F87508007582301200F87508017582311200F875080375824D
:2003A200321200F87508007582331200F87508007582341200F87508017582351200F87573
:2003C20008437582361200F87508027582371200F87508047582FE1200F87508CC758238EA
:2003E2001200F87508007582391200F875080275823A1200F875080075823B1200F875084A
:200402002075823D1200F875080175823F1200F87508A47582401200F8750857758241123E
:2004220000F87508027582421200F87508047582FE1200F87508CC7582431200F875080076
:200442007582441200F87508047582451200F87508007582461200F87508007582471200FD
:20046200F87508007582481200F87508017582491200F875080075824A1200F87508027538
:20048200824B1200F87508047582FE1200F875088875824C1200F875080075824D1200F8E6
:2004A20075080175824E1200F875080875824F1200F87508017582501200F875088E7582C7
:2004C200511200F87508367582521200F87508017582FE1200F875080075823A1200F8750F
:2004E200080075823B1200F875081075823D1200F875082F75823F1200F87508107582403B
:200502001200F875080A7582411200F87508107582371200F87508047582FE1200F8750844
:200522003075825E1200F875083275825F1200F87508847582601200F8750876758261125C
:2005420000F87508517582621200F87508057582FE1200F87508117582051200F8750800DE
:2005620075822A1200F87508007582911200F87508017582FE1200F87508337582421200C7
:20058200F87508227582431200F87508117582441200F87508667582451200F8750855753B
:2005A20082461200F87508447582471200F875083375824C1200F875082275824D1200F874
:2005C20075081175824E1200F875086675824F1200F87508557582501200F875084475822E
:2005E200511200F87508117582561200F87508227582581200F87508337582591200F87542
:20060200084475825A1200F875085575825B1200F875086675825C1200F8750811758261DD
:200622001200F87508227582621200F87508337582631200F87508447582641200F87508F5
:20064200557582651200F87508667582661200F87508007582FE1200F8750800758235125C
:2006620000F890001112008390009612006290002902008390002A1200837582001200C357
:200682007582001200C37582011200C37582101200C390002B1200837582001200C37582D0
:2006A200001200C37582011200C37582541200C39000221200839000641200629000231202
:2006C200008390003A1200837582071200C37508207582511200F890002C1200837E007F26
:2006E200007C007D00758200C007C006C005C0041200C37582FF1200C37582001200C3D0B6
:2007020004D005D006D0070CBC00010DC3EC9454ED940140D00EBE00010FC3EE9410EF949E
:200722000140BE90002C02008375940075930075920075910075960075950075B20075B1F7
:200742000075B40075B30075CA0075C9002212072B438E80120105120115120676C2CD9025
:0F07620003E8120062D2CD9003E812006280EE2D
:06003500E478FFF6D8FD9F
:200013007900E94400601B7A00900775780175A000E493F2A308B8000205A0D9F4DAF27517
:02003300A0FF2C
:20003B007800E84400600A790175A000E4F309D8FC7800E84400600C7900900001E4F0A3C3
:04005B00D8FCD9FAFA
:0D000600758108120771E582600302000396
:04077100758200226B
:00000001FF
