:03000000020006F5
:03005F0002000399
:03000300020B01EC
:20006200AE82AF838E048F051EBEFF011FEC4D600F7CE87D031CBCFF011DEC4D70F780E476
:2000820022AE82AF83C2C2C2C0C2C1D2C07C007D00C2C074805EFA7B00BA8007BB0004D2AB
:2000A200C18002C2C1EFCE25E0CE33FFD2C00CBC00010DC3EC9408ED940040D5D2C222AF08
:2000C20082C2C2C2C0D2C1D2C07D007E00C2C074805FFCBC8004D2C18002C2C1EF2FFFD2DE
:2000E200C00DBD00010EC3ED9408EE940040DED2C2227E008E831200838508820200C1C20B
:20010200CC900096120062D2CC9000960200627508047582FE1200F47508DC758200120071
:20012200F47508007582011200F47508027582021200F47508007582031200F47508007561
:2001420082041200F47508037582051200F47508167582061200F47508137582071200F465
:200162007508087582081200F47508DC7582091200F475080075820A1200F475080275829A
:200182000B1200F475080075820C1200F475080075820D1200F475080275820E1200F47540
:2001A200081675820F1200F47508187582101200F47508087582111200F4750892758212C6
:2001C2001200F47508007582131200F47508027582141200F47508057582151200F47508E9
:2001E200407582161200F47508037582171200F47508167582181200F47508D775821912F8
:2002020000F475080175821A1200F47508DC75821B1200F475080075821C1200F4750804CB
:2002220075821D1200F475080075821E1200F475080075821F1200F47508037582201200C8
:20024200F47508167582211200F47508187582221200F47508087582231200F47508DC75D0
:2002620082241200F47508007582251200F47508047582261200F47508007582271200F4EC
:200282007508007582281200F47508017582291200F475081675822A1200F47508187582D0
:2002A2002B1200F475080875822D1200F475089975824C1200F475080075824D1200F475C1
:2002C200080075824E1200F475080075824F1200F47508017582501200F475080A75825166
:2002E2001200F47508007582521200F47508E475825A1200F475087775825E1200F47508A6
:200302007775825F1200F47508347582601200F47508027582611200F475088175826212B4
:2003220000F47508077582FE1200F475084F7582071200F47508017582FE1200F47508156D
:200342007582051200F475088475820E1200F47508517582101200F4750882758215120095
:20036200F47508477582181200F47508367582191200F475081075821A1200F475087775D8
:20038200821C1200F47508287582211200F47508907582221200F47508207582231200F40B
:2003A2007508037582251200F475084A7582261200F475080375822A1200F475080C758288
:2003C200371200F475080C75823A1200F475084075823B1200F475080175823D1200F475FC
:2003E200083875823F1200F47508017582401200F47508017582411200F47508337582421F
:200402001200F47508667582431200F47508117582441200F47508447582451200F4750862
:20042200227582461200F47508557582471200F475083375824C1200F475086675824D120D
:2004420000F475081175824E1200F475084475824F1200F47508227582501200F475085502
:200462007582511200F47508117582561200F47508447582581200F4750822758259120034
:20048200F475085575825A1200F475083375825B1200F475086675825C1200F475081175F6
:2004A20082611200F47508447582621200F47508227582631200F47508557582641200F4FF
:2004C2007508337582651200F47508667582661200F47508A57582701200F47508057582BA
:2004E200FE1200F475080A7582FE1200F47508107582291200F47508007582FE1200F475D4
:2005020008007582351200F47508007582111200F47508407582361200F475080075822987
:200522000200F47508017582FE1200F47508407582051200F47508557582061200F4750839
:20054200717582101200F475088075820E1200F47508557582191200F47508887582181205
:2005620000F475081075821A1200F475087775821C1200F47508217582231200F475084059
:200582007582211200F47508B77582221200F47508057582251200F47508FC75822612009C
:2005A200F47508FF7582701200F47508047582FE1200F475081075825D1200F47508FF7508
:2005C200825A1200F47508047582FE1200F47508CC7582001200F47508007582011200F4FA
:2005E2007508027582021200F47508007582031200F47508A87582041200F4750801758263
:20060200051200F475088E7582061200F47508FC7582071200F47508027582081200F47549
:2006220008047582FE1200F47508CC7582091200F475080075820A1200F475080475820B5B
:200642001200F475080075820C1200F475088075820D1200F475080275820E1200F47508FE
:200662000175820F1200F47508007582101200F47508027582111200F47508047582FE12CC
:2006820000F475088C7582121200F47508007582131200F47508027582141200F4750801B1
:2006A2007582151200F47508087582161200F47508007582171200F475088E7582181200D1
:2006C200F47508367582191200F475080275821A1200F47508047582FE1200F47508CC758B
:2006E200821B1200F475080075821C1200F475080275821D1200F475080075821E1200F48E
:2007020075080875821F1200F47508007582201200F475088E7582211200F47508007582FF
:20072200221200F47508027582231200F47508047582FE1200F47508CC7582241200F47595
:2007420008007582251200F47508027582261200F47508007582271200F475080875822886
:200762001200F47508017582291200F475088E75822A1200F475084275822B1200F4750837
:200782000275822D1200F47508047582FE1200F475088C75822F1200F475080075823012C4
:2007A20000F47508017582311200F47508037582321200F47508007582331200F4750800BE
:2007C2007582341200F47508017582351200F47508437582361200F4750802758237120084
:2007E200F47508047582FE1200F47508CC7582381200F47508007582391200F47508027562
:20080200823A1200F475080075823B1200F475082075823D1200F475080175823F1200F4CE
:200822007508A47582401200F47508577582411200F47508027582421200F4750804758210
:20084200FE1200F47508CC7582431200F47508007582441200F47508047582451200F47513
:2008620008007582461200F47508007582471200F47508007582481200F4750801758249EA
:200882001200F475080075824A1200F475080275824B1200F47508047582FE1200F47508CC
:2008A2008875824C1200F475080075824D1200F475080175824E1200F475080875824F12F8
:2008C20000F47508017582501200F475088E7582511200F47508367582521200F47508017E
:2008E2007582FE1200F475080075823A1200F475080075823B1200F475081075823D1200BF
:20090200F475082F75823F1200F47508107582401200F475080A7582411200F47508107568
:2009220082371200F47508047582FE1200F475083075825E1200F475083275825F1200F467
:200942007508847582601200F47508767582611200F47508517582621200F4750805758240
:20096200FE1200F47508117582051200F475080075822A1200F47508007582911200F475BD
:2009820008017582FE1200F47508337582421200F47508227582431200F4750811758244BA
:2009A2001200F47508667582451200F47508557582461200F47508447582471200F4750873
:2009C2003375824C1200F475082275824D1200F475081175824E1200F475086675824F129C
:2009E20000F47508557582501200F47508447582511200F47508117582561200F475082253
:200A02007582581200F47508337582591200F475084475825A1200F475085575825B12002B
:200A2200F475086675825C1200F47508117582611200F47508227582621200F47508337575
:200A420082631200F47508447582641200F47508557582651200F47508667582661200F40D
:200A62007508007582FE1200F47508007582351200F49000111200839000961200629000ED
:200A8200290200837508207582511200F490002C1200837E007F007C007D007582FFC007B7
:200AA200C006C005C0041200C17582001200C17582001200C1D004D005D006D0070CBC0060
:200AC200010DC3EC9454ED940140D00EBE00010FC3EE9410EF940140BE22759400759300F7
:200AE20075920075910075960075950075B20075B10075B40075B30075CA0075C900221283
:200B02000ADC438E80120101120111120A86C2CD9003E8120062D2CD9003E812006280EE48
:06003500E478FFF6D8FD9F
:200013007900E94400601B7A00900B26780175A000E493F2A308B8000205A0D9F4DAF27562
:02003300A0FF2C
:20003B007800E84400600A790175A000E4F309D8FC7800E84400600C7900900001E4F0A3C3
:04005B00D8FCD9FAFA
:0D000600758108120B22E5826003020003E1
:040B220075820022B6
:00000001FF
