:03000000020006F5
:03005F0002000399
:03000300020B27C6
:10006200AE82AF838E048F051EBEFF011FEC4D6072
:100072000F7CE87D031CBCFF011DEC4D70F780E492
:10008200227F007E00C2C08F05A2B7E433FC4D255B
:10009200E0FFD2C00EBE080040EB8F8222AF827E0C
:1000A20000C2C074805FFDBD8004D2C18002C2C1A3
:1000B200EF2FFFD2C00EBE080040E622AF8275824B
:1000C20020C00712009FD0078F8212009F75820006
:1000D20012009F75820002009FAF82758220C007C6
:1000E20012009FD0078F8202009FAF82C2C28F820E
:1000F2001200BE8508821200DBD2C222C2CC90005E
:1001020096120062D2CC90009602006275080475C5
:1001120082FE1200EC7508DC7582001200EC750894
:10012200007582011200EC7508027582021200EC61
:100132007508007582031200EC75080075820412BE
:1001420000EC7508037582051200EC7508167582BD
:10015200061200EC7508137582071200EC75080888
:100162007582081200EC7508DC7582091200EC75C4
:10017200080075820A1200EC75080275820B1200E3
:10018200EC75080075820C1200EC75080075820D82
:100192001200EC75080275820E1200EC75081675D5
:1001A200820F1200EC7508187582101200EC7508A7
:1001B200087582111200EC7508927582121200EC19
:1001C2007508007582131200EC750802758214120C
:1001D20000EC7508057582151200EC7508407582F1
:1001E200161200EC7508037582171200EC750816DA
:1001F2007582181200EC7508D77582191200EC7519
:10020200080175821A1200EC7508DC75821B120057
:10021200EC75080075821C1200EC75080475821DCD
:100222001200EC75080075821E1200EC750800754C
:10023200821F1200EC7508037582201200EC75080B
:10024200167582211200EC7508187582221200ECD4
:100252007508087582231200EC7508DC7582241279
:1002620000EC7508007582251200EC750804758291
:10027200261200EC7508007582271200EC75080042
:100282007582281200EC7508017582291200EC753E
:10029200081675822A1200EC75081875822B120056
:1002A200EC75080875822D1200EC75089975824C60
:1002B2001200EC75080075824D1200EC750800758D
:1002C200824E1200EC75080075824F1200EC750820
:1002D200017582501200EC75080A7582511200EC09
:1002E2007508007582521200EC7508E475825A1284
:1002F20000EC75087775825E1200EC7508777582DE
:100302005F1200EC7508347582601200EC75080209
:100312007582611200EC7508817582621200EC75BB
:1003220008077582FE1200EC75084F7582071200ED
:10033200EC7508017582FE1200EC750815758205D0
:100342001200EC75088475820E1200EC7508517566
:1003520082101200EC7508827582151200EC750885
:10036200477582181200EC7508367582191200EC76
:1003720075081075821A1200EC75087775821C12C6
:1003820000EC7508287582211200EC7508907582C0
:10039200221200EC7508207582231200EC75080306
:1003A2007582251200EC75084A7582261200EC75DA
:1003B200080375822A1200EC75080C758237120048
:1003C200EC75080075823A1200EC75084075823BA4
:1003D2001200EC75080175823D1200EC7508387543
:1003E200823F1200EC7508017582401200EC75081C
:1003F200017582411200EC7508337582421200ECDD
:100402007508667582431200EC75081175824412F4
:1004120000EC7508447582451200EC75082275825D
:10042200461200EC7508557582471200EC750833C8
:1004320075824C1200EC75086675824D1200EC75DF
:10044200081175824E1200EC75084475824F120035
:10045200EC7508227582501200EC750855758251B0
:100462001200EC7508117582561200EC750844757D
:1004720082581200EC7508227582591200EC750838
:100482005575825A1200EC75083375825B1200ECC6
:1004920075086675825C1200EC750811758261122E
:1004A20000EC7508447582621200EC7508227582B0
:1004B200631200EC7508557582641200EC750833FE
:1004C2007582651200EC7508667582661200EC751D
:1004D20008A57582701200EC7508057582FE12007F
:1004E200EC7508087582051200EC75080A7582FE23
:1004F2001200EC7508107582291200EC750800755F
:1005020082FE1200EC7508007582351200EC750847
:10051200007582111200EC7508407582361200ECEB
:100522007508007582290200EC7508017582FE12B9
:1005320000EC7508407582051200EC75085575824D
:10054200061200EC7508717582101200EC750880B5
:1005520075820E1200EC7508557582191200EC7541
:1005620008887582181200EC75081075821A12003C
:10057200EC75087775821C1200EC750821758223D0
:100582001200EC7508407582211200EC7508B775EF
:1005920082221200EC7508057582251200EC75089E
:1005A200FC7582261200EC7508FF7582701200EC51
:1005B2007508047582FE1200EC75081075825D12D2
:1005C20000EC7508FF75825A1200EC7508047582FA
:1005D200FE1200EC7508CC7582001200EC75080062
:1005E2007582011200EC7508027582021200EC7528
:1005F20008007582031200EC7508A87582041200C7
:10060200EC7508017582051200EC75088E7582067C
:100612001200EC7508FC7582071200EC7508027571
:1006220082081200EC7508047582FE1200EC75084F
:10063200CC7582091200EC75080075820A1200EC72
:1006420075080475820B1200EC75080075820C1295
:1006520000EC75088075820D1200EC750802758237
:100662000E1200EC75080175820F1200EC7508007D
:100672007582101200EC7508027582111200EC7579
:1006820008047582FE1200EC75088C758212120045
:10069200EC7508007582131200EC7508027582145D
:1006A2001200EC7508017582151200EC75080875C8
:1006B20082161200EC7508007582171200EC75089C
:1006C2008E7582181200EC7508367582191200ECCC
:1006D20075080275821A1200EC7508047582FE1202
:1006E20000EC7508CC75821B1200EC75080075824F
:1006F2001C1200EC75080275821D1200EC750800D0
:1007020075821E1200EC75080875821F1200EC75C6
:1007120008007582201200EC75088E758221120085
:10072200EC7508007582221200EC750802758223AE
:100732001200EC7508047582FE1200EC7508CC7587
:1007420082241200EC7508007582251200EC7508EF
:10075200027582261200EC7508007582271200ECE1
:100762007508087582281200EC7508017582291235
:1007720000EC75088E75822A1200EC7508427582AB
:100782002B1200EC75080275822D1200EC7508041C
:100792007582FE1200EC75088C75822F1200EC75C2
:1007A20008007582301200EC750801758231120062
:1007B200EC7508037582321200EC750800758233FD
:1007C2001200EC7508007582341200EC7508017590
:1007D20082351200EC7508437582361200EC7508FA
:1007E200027582371200EC7508047582FE1200EC65
:1007F2007508CC7582381200EC75080075823912C2
:1008020000EC75080275823A1200EC7508007582D8
:100812003B1200EC75082075823D1200EC75080150
:1008220075823F1200EC7508A47582401200EC75C7
:1008320008577582411200EC750802758242120057
:10084200EC7508047582FE1200EC7508CC758243C3
:100852001200EC7508007582441200EC75080475EC
:1008620082451200EC7508007582461200EC75088C
:10087200007582471200EC7508007582481200EC80
:100882007508017582491200EC75080075824A12DA
:1008920000EC75080275824B1200EC750804758233
:1008A200FE1200EC75088875824C1200EC75080087
:1008B20075824D1200EC75080175824E1200EC75BE
:1008C200080875824F1200EC7508017582501200FB
:1008D200EC75088E7582511200EC750836758252DD
:1008E2001200EC7508017582FE1200EC75080075A5
:1008F200823A1200EC75080075823B1200EC750812
:100902001075823D1200EC75082F75823F1200ECC3
:100912007508107582401200EC75080A7582411242
:1009220000EC7508107582371200EC7508047582A8
:10093200FE1200EC75083075825E1200EC7508320A
:1009420075825F1200EC7508847582601200EC7586
:1009520008767582611200EC750851758262120088
:10096200EC7508057582FE1200EC7508117582059A
:100972001200EC75080075822A1200EC75080075E9
:1009820082911200EC7508017582FE1200EC750866
:10099200337582421200EC7508227582431200EC14
:1009A2007508117582441200EC750866758245124D
:1009B20000EC7508557582461200EC750844758284
:1009C200471200EC75083375824C1200EC75082250
:1009D20075824D1200EC75081175824E1200EC758D
:1009E200086675824F1200EC750855758250120028
:1009F200EC7508447582511200EC75081175825627
:100A02001200EC7508227582581200EC75083375D5
:100A120082591200EC75084475825A1200EC75086E
:100A22005575825B1200EC75086675825C1200ECEB
:100A32007508117582611200EC75082275826212C6
:100A420000EC7508337582631200EC7508447582F8
:100A5200641200EC7508557582651200EC75086623
:100A62007582661200EC7508007582FE1200EC7544
:100A720008007582351200EC7582111200BE9000DA
:100A8200961200627582290200BE75082075825195
:100A92001200EC75822C1200BE7E007F007C007D6D
:100AA200007582FFC007C006C005C0041200DB75D6
:100AB20082001200DB7582001200DBD004D005D068
:100AC20006D0070CBC00010DC3EC9454ED94014018
:100AD200D00EBE00010FC3EE9410EF940140BE226F
:100AE2007594007593007592007591007596007566
:100AF200950075B20075B10075B40075B30075CA82
:100B02000075C90022759850438E40538EFE53895A
:100B12000F758BE0758DFEC2ABD28E228582991045
:100B2200990280FB22120AE2120B07438E80120006
:100B3200FE900BB81200627582AA120B1E7582BB60
:100B4200120B1E7582CC120B1EC2C27582201200BD
:100B52009F75820012009F75820012009F758200AD
:100B620012009F7582C012009F120083D2C2C2CDB2
:100B72009003E8120062D2CD9003E812006280EE88
:06003500E478FFF6D8FD9F
:100013007900E94400601B7A00900B86780175A093
:1000230000E493F2A308B8000205A0D9F4DAF2754C
:02003300A0FF2C
:10003B007800E84400600A790175A000E4F309D860
:10004B00FC7800E84400600C7900900001E4F0A318
:04005B00D8FCD9FAFA
:0D000600758108120B82E582600302000381
:040B82007582002256
:00000001FF
