:03000000020006F5
:03005F0002000399
:03000300020B7776
:20006200AE82AF838E048F051EBEFF011FEC4D600F7CE87D031CBCFF011DEC4D70F780E476
:20008200227E007F007C007D00C2C0D2C00CBC00010DC3EC9408ED940040EE7C007D00C2A7
:2000A200C0D2C0EFCE25E0CE33FFA2B7E433FA7B004206EB42070CBC00010DC3EC9410EDB3
:2000C200940040DB8E828F8322AF827E00C2C074805FFDBD8004D2C18002C2C1EF2FFFD2E2
:2000E200C00EBE080040E622AF82C2C0EF24FF92C1D2C08508820200CB8582087582001284
:2001020000EA0200838582087582001200EA8509087582010200EAC2CC900096120062D2F8
:20012200CC900096120062C2C2227509047582FE1201077509DC75820012010775090075C2
:20014200820112010775090275820212010775090075820312010775090075820412010748
:20016200750903758205120107750916758206120107750913758207120107750908758215
:20018200081201077509DC75820912010775090075820A12010775090275820B120107751D
:2001A200090075820C12010775090075820D12010775090275820E12010775091675820F42
:2001C2001201077509187582101201077509087582111201077509927582121201077509F3
:2001E2000075821312010775090275821412010775090575821512010775094075821612AE
:2002020001077509037582171201077509167582181201077509D775821912010775090170
:2002220075821A1201077509DC75821B12010775090075821C12010775090475821D1201B7
:200242000775090075821E12010775090075821F120107750903758220120107750916757F
:2002620082211201077509187582221201077509087582231201077509DC758224120107AD
:200282007509007582251201077509047582261201077509007582271201077509007582C4
:2002A2002812010775090175822912010775091675822A12010775091875822B120107752B
:2002C200090875822D12010775099975824C12010775090075824D12010775090075824EBA
:2002E20012010775090075824F12010775090175825012010775090A7582511201077509BC
:20030200007582521201077509E475825A12010775097775825E12010775097775825F12EA
:200322000107750934758260120107750902758261120107750981758262120107750907A7
:200342007582FE12010775094F7582071201077509017582FE120107750915758205120177
:200362000775098475820E1201077509517582101201077509827582151201077509477503
:20038200821812010775093675821912010775091075821A12010775097775821C120107EE
:2003A2007509287582211201077509907582221201077509207582231201077509037582D8
:2003C2002512010775094A75822612010775090375822A12010775090C75823712010775DA
:2003E200090075823A12010775094075823B12010775090175823D12010775093875823FE4
:2004020012010775090175824012010775090175824112010775093375824212010775099D
:20042200667582431201077509117582441201077509447582451201077509227582461215
:20044200010775095575824712010775093375824C12010775096675824D12010775091188
:2004620075824E12010775094475824F1201077509227582501201077509557582511201CA
:200482000775091175825612010775094475825812010775092275825912010775095575E0
:2004A200825A12010775093375825B12010775096675825C120107750911758261120107D5
:2004C2007509447582621201077509227582631201077509557582641201077509337582E1
:2004E200651201077509667582661201077509A57582701201077509057582FE1201077575
:20050200090875820512010775090A7582FE1201077509107582291201077509007582FEE0
:200522001201077509007582351201077509007582111201077509407582361201077509B8
:20054200007582290201077509017582FE120107750940758205120107750955758206122B
:20056200010775097175821012010775098075820E12010775095575821912010775098841
:2005820075821812010775091075821A12010775097775821C120107750921758223120189
:2005A200077509407582211201077509B77582221201077509057582251201077509FC7532
:2005C20082261201077509FF7582701201077509047582FE12010775091075825D120107CC
:2005E2007509FF75825A1201077509047582FE1201077509CC7582001201077509007582B0
:20060200011201077509027582021201077509007582031201077509A875820412010775E8
:20062200090175820512010775098E7582061201077509FC75820712010775090275820864
:200642001201077509047582FE1201077509CC75820912010775090075820A120107750972
:200662000475820B12010775090075820C12010775098075820D12010775090275820E120A
:20068200010775090175820F120107750900758210120107750902758211120107750904EE
:2006A2007582FE12010775098C7582121201077509007582131201077509027582141201BC
:2006C2000775090175821512010775090875821612010775090075821712010775098E7598
:2006E200821812010775093675821912010775090275821A1201077509047582FE1201072A
:200702007509CC75821B12010775090075821C12010775090275821D120107750900758293
:200722001E12010775090875821F12010775090075822012010775098E7582211201077567
:2007420009007582221201077509027582231201077509047582FE1201077509CC758224B1
:200762001201077509007582251201077509027582261201077509007582271201077509BE
:200782000875822812010775090175822912010775098E75822A12010775094275822B1222
:2007A200010775090275822D1201077509047582FE12010775098C75822F12010775090018
:2007C200758230120107750901758231120107750903758232120107750900758233120196
:2007E20007750900758234120107750901758235120107750943758236120107750902756B
:2008020082371201077509047582FE1201077509CC75823812010775090075823912010717
:2008220075090275823A12010775090075823B12010775092075823D1201077509017582BF
:200842003F1201077509A4758240120107750957758241120107750902758242120107755B
:2008620009047582FE1201077509CC7582431201077509007582441201077509047582452B
:2008820012010775090075824612010775090075824712010775090075824812010775093C
:2008A2000175824912010775090075824A12010775090275824B1201077509047582FE129D
:2008C200010775098875824C12010775090075824D12010775090175824E1201077509086B
:2008E20075824F12010775090175825012010775098E758251120107750936758252120138
:20090200077509017582FE12010775090075823A12010775090075823B12010775091075AA
:20092200823D12010775092F75823F12010775091075824012010775090A75824112010726
:200942007509107582371201077509047582FE12010775093075825E12010775093275826A
:200962005F120107750984758260120107750976758261120107750951758262120107756C
:2009820009057582FE12010775091175820512010775090075822A120107750900758291D4
:2009A2001201077509017582FE120107750933758242120107750922758243120107750917
:2009C200117582441201077509667582451201077509557582461201077509447582471239
:2009E200010775093375824C12010775092275824D12010775091175824E1201077509660F
:200A020075824F12010775095575825012010775094475825112010775091175825612012D
:200A22000775092275825812010775093375825912010775094475825A1201077509557514
:200A4200825B12010775096675825C12010775091175826112010775092275826212010738
:200A62007509337582631201077509447582641201077509557582651201077509667582F4
:200A8200661201077509007582FE1201077509007582351201077508117582001200EA9072
:200AA20000961200627508297582000200EA75092075825112010775082C7582001200EA05
:200AC2007E007F007C007D007508FF758200C007C006C005C0041200EAD004D005D006D04A
:200AE200077508FF758200C007C006C005C0041200EAD004D005D006D0077508FF7582009F
:200B0200C007C006C005C0041200EAD004D005D006D0070CBC00010DC3EC9454ED9401403C
:200B2200A70EBE00010FC3EE9410EF940140952275940075930075920075910075960075C2
:200B4200950075B20075B10075B40075B30075CA0075C90022759850438E40538EFE538998
:200B62000F758BE0758DFEC2ABD28E2285829910990280FB22120B32120B57438E80120186
:200B820019120549120AB0900BB81200627508517582001200EA7508AA7582011200EA75F6
:200BA20008527582001200EA120083AE82AF838F82C007C006120B6ED006D0078E82120BEC
:150BC2006ED2C2C2CD9003E8120062D2CD9003E812006280EEA2
:06003500E478FFF6D8FD9F
:200013007900E94400601B7A00900BDB780175A000E493F2A308B8000205A0D9F4DAF275AD
:02003300A0FF2C
:20003B007800E84400600A790175A000E4F309D8FC7800E84400600C7900900001E4F0A3C3
:04005B00D8FCD9FAFA
:0D000600758109120BD7E58260030200032B
:040BD7007582002201
:00000001FF
